{
  "contractName": "COVID",
  "abi": [
    {
      "constant": false,
      "inputs": [
        {
          "internalType": "string",
          "name": "_FirstName",
          "type": "string"
        },
        {
          "internalType": "string",
          "name": "_LastName",
          "type": "string"
        },
        {
          "internalType": "string",
          "name": "_Email",
          "type": "string"
        },
        {
          "internalType": "string",
          "name": "_Phone",
          "type": "string"
        },
        {
          "internalType": "bool",
          "name": "_TravelOrNot",
          "type": "bool"
        },
        {
          "internalType": "bool",
          "name": "_otherSymptom",
          "type": "bool"
        },
        {
          "internalType": "bool",
          "name": "_Contact",
          "type": "bool"
        },
        {
          "internalType": "bool",
          "name": "_Symptom",
          "type": "bool"
        }
      ],
      "name": "UploadHealthStatus",
      "outputs": [
        {
          "internalType": "bool",
          "name": "",
          "type": "bool"
        }
      ],
      "payable": false,
      "stateMutability": "nonpayable",
      "type": "function"
    },
    {
      "constant": true,
      "inputs": [
        {
          "internalType": "address",
          "name": "Deliv",
          "type": "address"
        }
      ],
      "name": "GetHealthStatus",
      "outputs": [
        {
          "internalType": "string",
          "name": "",
          "type": "string"
        },
        {
          "internalType": "string",
          "name": "",
          "type": "string"
        },
        {
          "internalType": "string",
          "name": "",
          "type": "string"
        },
        {
          "internalType": "string",
          "name": "",
          "type": "string"
        },
        {
          "internalType": "bool",
          "name": "",
          "type": "bool"
        },
        {
          "internalType": "bool",
          "name": "",
          "type": "bool"
        },
        {
          "internalType": "bool",
          "name": "",
          "type": "bool"
        },
        {
          "internalType": "bool",
          "name": "",
          "type": "bool"
        }
      ],
      "payable": false,
      "stateMutability": "view",
      "type": "function"
    }
  ],
  "bytecode": "0x608060405234801561001057600080fd5b50610cca806100206000396000f3fe608060405234801561001057600080fd5b50600436106100365760003560e01c8063336594661461003b578063de01215f14610268575b600080fd5b61007d6004803603602081101561005157600080fd5b81019080803573ffffffffffffffffffffffffffffffffffffffff169060200190929190505050610531565b60405180806020018060200180602001806020018915151515815260200188151515158152602001871515151581526020018615151515815260200185810385528d818151815260200191508051906020019080838360005b838110156100f15780820151818401526020810190506100d6565b50505050905090810190601f16801561011e5780820380516001836020036101000a031916815260200191505b5085810384528c818151815260200191508051906020019080838360005b8381101561015757808201518184015260208101905061013c565b50505050905090810190601f1680156101845780820380516001836020036101000a031916815260200191505b5085810383528b818151815260200191508051906020019080838360005b838110156101bd5780820151818401526020810190506101a2565b50505050905090810190601f1680156101ea5780820380516001836020036101000a031916815260200191505b5085810382528a818151815260200191508051906020019080838360005b83811015610223578082015181840152602081019050610208565b50505050905090810190601f1680156102505780820380516001836020036101000a031916815260200191505b509c5050505050505050505050505060405180910390f35b610517600480360361010081101561027f57600080fd5b810190808035906020019064010000000081111561029c57600080fd5b8201836020820111156102ae57600080fd5b803590602001918460018302840111640100000000831117156102d057600080fd5b91908080601f016020809104026020016040519081016040528093929190818152602001838380828437600081840152601f19601f8201169050808301925050505050505091929192908035906020019064010000000081111561033357600080fd5b82018360208201111561034557600080fd5b8035906020019184600183028401116401000000008311171561036757600080fd5b91908080601f016020809104026020016040519081016040528093929190818152602001838380828437600081840152601f19601f820116905080830192505050505050509192919290803590602001906401000000008111156103ca57600080fd5b8201836020820111156103dc57600080fd5b803590602001918460018302840111640100000000831117156103fe57600080fd5b91908080601f016020809104026020016040519081016040528093929190818152602001838380828437600081840152601f19601f8201169050808301925050505050505091929192908035906020019064010000000081111561046157600080fd5b82018360208201111561047357600080fd5b8035906020019184600183028401116401000000008311171561049557600080fd5b91908080601f016020809104026020016040519081016040528093929190818152602001838380828437600081840152601f19601f8201169050808301925050505050505091929192908035151590602001909291908035151590602001909291908035151590602001909291908035151590602001909291905050506108d5565b604051808215151515815260200191505060405180910390f35b606080606080600080600080610545610ba3565b6000808b73ffffffffffffffffffffffffffffffffffffffff1673ffffffffffffffffffffffffffffffffffffffff16815260200190815260200160002060405180610100016040529081600082018054600181600116156101000203166002900480601f0160208091040260200160405190810160405280929190818152602001828054600181600116156101000203166002900480156106285780601f106105fd57610100808354040283529160200191610628565b820191906000526020600020905b81548152906001019060200180831161060b57829003601f168201915b50505050508152602001600182018054600181600116156101000203166002900480601f0160208091040260200160405190810160405280929190818152602001828054600181600116156101000203166002900480156106ca5780601f1061069f576101008083540402835291602001916106ca565b820191906000526020600020905b8154815290600101906020018083116106ad57829003601f168201915b50505050508152602001600282018054600181600116156101000203166002900480601f01602080910402602001604051908101604052809291908181526020018280546001816001161561010002031660029004801561076c5780601f106107415761010080835404028352916020019161076c565b820191906000526020600020905b81548152906001019060200180831161074f57829003601f168201915b50505050508152602001600382018054600181600116156101000203166002900480601f01602080910402602001604051908101604052809291908181526020018280546001816001161561010002031660029004801561080e5780601f106107e35761010080835404028352916020019161080e565b820191906000526020600020905b8154815290600101906020018083116107f157829003601f168201915b505050505081526020016004820160009054906101000a900460ff161515151581526020016004820160019054906101000a900460ff161515151581526020016004820160029054906101000a900460ff161515151581526020016004820160039054906101000a900460ff1615151515815250509050806000015181602001518260400151836060015184608001518560a001518660c001518760e001518797508696508595508494509850985098509850985098509850985050919395975091939597565b6000886000803373ffffffffffffffffffffffffffffffffffffffff1673ffffffffffffffffffffffffffffffffffffffff168152602001908152602001600020600001908051906020019061092c929190610bf0565b50876000803373ffffffffffffffffffffffffffffffffffffffff1673ffffffffffffffffffffffffffffffffffffffff1681526020019081526020016000206001019080519060200190610982929190610bf0565b50866000803373ffffffffffffffffffffffffffffffffffffffff1673ffffffffffffffffffffffffffffffffffffffff16815260200190815260200160002060020190805190602001906109d8929190610bf0565b50856000803373ffffffffffffffffffffffffffffffffffffffff1673ffffffffffffffffffffffffffffffffffffffff1681526020019081526020016000206003019080519060200190610a2e929190610bf0565b50846000803373ffffffffffffffffffffffffffffffffffffffff1673ffffffffffffffffffffffffffffffffffffffff16815260200190815260200160002060040160006101000a81548160ff021916908315150217905550836000803373ffffffffffffffffffffffffffffffffffffffff1673ffffffffffffffffffffffffffffffffffffffff16815260200190815260200160002060040160016101000a81548160ff021916908315150217905550826000803373ffffffffffffffffffffffffffffffffffffffff1673ffffffffffffffffffffffffffffffffffffffff16815260200190815260200160002060040160026101000a81548160ff021916908315150217905550816000803373ffffffffffffffffffffffffffffffffffffffff1673ffffffffffffffffffffffffffffffffffffffff16815260200190815260200160002060040160036101000a81548160ff0219169083151502179055506001905098975050505050505050565b604051806101000160405280606081526020016060815260200160608152602001606081526020016000151581526020016000151581526020016000151581526020016000151581525090565b828054600181600116156101000203166002900490600052602060002090601f016020900481019282601f10610c3157805160ff1916838001178555610c5f565b82800160010185558215610c5f579182015b82811115610c5e578251825591602001919060010190610c43565b5b509050610c6c9190610c70565b5090565b610c9291905b80821115610c8e576000816000905550600101610c76565b5090565b9056fea265627a7a7231582079bb7cd560809df1c82a10693a41dec69a1b29358bed286724c5dfa32a645d7d64736f6c63430005100032",
  "source": "pragma solidity ^0.5.0;\n\n/*\nContract Description:\n\n*********** Delivery Person ***********\n\n*/\n\ncontract COVID {\n    // Delivery Person\n    struct Deliver {\n        string FirstName;\n        string LastName;\n        string Email;\n        string Phone;\n        bool TravelOrNot;\n        bool otherSymptom;\n        bool Contact;\n        bool Symptom;\n    }\n    // Health State related\n    mapping(address => Deliver) private _HealthStatus;\n\n    /* Delivery Side*/\n    // Upload the health status\n    function UploadHealthStatus(\n        string memory _FirstName,\n        string memory _LastName,\n        string memory _Email,\n        string memory _Phone,\n        bool _TravelOrNot,\n        bool _otherSymptom,\n        bool _Contact,\n        bool _Symptom\n    ) public returns (bool) {\n        _HealthStatus[msg.sender].FirstName = _FirstName;\n        _HealthStatus[msg.sender].LastName = _LastName;\n        _HealthStatus[msg.sender].Email = _Email;\n        _HealthStatus[msg.sender].Phone = _Phone;\n        _HealthStatus[msg.sender].TravelOrNot = _TravelOrNot;\n        _HealthStatus[msg.sender].otherSymptom = _otherSymptom;\n        _HealthStatus[msg.sender].Contact = _Contact;\n        _HealthStatus[msg.sender].Symptom = _Symptom;\n\n        // Success\n        return true;\n    }\n\n    /* Client Side*/\n\n    // Get the health status of a specific delivery person (by address)\n    // Return array: [FName, LName, Email, Phone ......]\n    function GetHealthStatus(address Deliv)\n        public\n        view\n        returns (\n            string memory,\n            string memory,\n            string memory,\n            string memory,\n            bool,\n            bool,\n            bool,\n            bool\n        )\n    {\n        Deliver memory deliver = _HealthStatus[Deliv];\n        // Return the health status by an array\n        return (\n            deliver.FirstName,\n            deliver.LastName,\n            deliver.Email,\n            deliver.Phone,\n            deliver.TravelOrNot,\n            deliver.otherSymptom,\n            deliver.Contact,\n            deliver.Symptom\n        );\n    }\n}\n",
  "sourcePath": "D:/電子書/網多實驗/Final Project/No-Covid/contracts/COVID.sol",
  "compiler": {
    "name": "solc",
    "version": "0.5.16+commit.9c3226ce.Emscripten.clang"
  },
  "schemaVersion": "3.4.1",
  "updatedAt": "2021-06-01T02:51:53.775Z",
  "devdoc": {
    "methods": {}
  },
  "userdoc": {
    "methods": {}
  }
}