{
  "contractName": "COVID",
  "abi": [
    {
      "anonymous": false,
      "inputs": [
        {
          "indexed": false,
          "internalType": "address",
          "name": "DP",
          "type": "address"
        }
      ],
      "name": "UpdateHealth",
      "type": "event"
    },
    {
      "constant": false,
      "inputs": [
        {
          "internalType": "string",
          "name": "_FirstName",
          "type": "string"
        },
        {
          "internalType": "string",
          "name": "_LastName",
          "type": "string"
        },
        {
          "internalType": "string",
          "name": "_Email",
          "type": "string"
        },
        {
          "internalType": "string",
          "name": "_Phone",
          "type": "string"
        },
        {
          "internalType": "bool",
          "name": "_TravelOrNot",
          "type": "bool"
        },
        {
          "internalType": "bool",
          "name": "_otherSymptom",
          "type": "bool"
        },
        {
          "internalType": "bool",
          "name": "_Contact",
          "type": "bool"
        },
        {
          "internalType": "bool",
          "name": "_Symptom",
          "type": "bool"
        }
      ],
      "name": "UploadHealthStatus",
      "outputs": [
        {
          "internalType": "bool",
          "name": "",
          "type": "bool"
        }
      ],
      "payable": false,
      "stateMutability": "nonpayable",
      "type": "function"
    },
    {
      "constant": false,
      "inputs": [],
      "name": "DeleteDeliver",
      "outputs": [],
      "payable": false,
      "stateMutability": "nonpayable",
      "type": "function"
    },
    {
      "constant": true,
      "inputs": [],
      "name": "GetMatchedCutomer",
      "outputs": [
        {
          "internalType": "bool",
          "name": "",
          "type": "bool"
        },
        {
          "internalType": "address",
          "name": "",
          "type": "address"
        }
      ],
      "payable": false,
      "stateMutability": "view",
      "type": "function"
    },
    {
      "constant": true,
      "inputs": [
        {
          "internalType": "address",
          "name": "_customer",
          "type": "address"
        }
      ],
      "name": "GetOrderByAddress",
      "outputs": [
        {
          "internalType": "int256[6]",
          "name": "",
          "type": "int256[6]"
        },
        {
          "internalType": "string",
          "name": "",
          "type": "string"
        },
        {
          "internalType": "string",
          "name": "",
          "type": "string"
        }
      ],
      "payable": false,
      "stateMutability": "view",
      "type": "function"
    },
    {
      "constant": false,
      "inputs": [],
      "name": "FinishMatch",
      "outputs": [],
      "payable": false,
      "stateMutability": "nonpayable",
      "type": "function"
    },
    {
      "constant": true,
      "inputs": [],
      "name": "GetProduct",
      "outputs": [
        {
          "internalType": "string",
          "name": "",
          "type": "string"
        },
        {
          "internalType": "string",
          "name": "",
          "type": "string"
        },
        {
          "internalType": "string",
          "name": "",
          "type": "string"
        },
        {
          "internalType": "string",
          "name": "",
          "type": "string"
        },
        {
          "internalType": "string",
          "name": "",
          "type": "string"
        },
        {
          "internalType": "string",
          "name": "",
          "type": "string"
        }
      ],
      "payable": false,
      "stateMutability": "view",
      "type": "function"
    },
    {
      "constant": true,
      "inputs": [
        {
          "internalType": "address",
          "name": "Deliv",
          "type": "address"
        }
      ],
      "name": "GetHealthStatus",
      "outputs": [
        {
          "internalType": "string",
          "name": "",
          "type": "string"
        },
        {
          "internalType": "string",
          "name": "",
          "type": "string"
        },
        {
          "internalType": "string",
          "name": "",
          "type": "string"
        },
        {
          "internalType": "string",
          "name": "",
          "type": "string"
        },
        {
          "internalType": "bool",
          "name": "",
          "type": "bool"
        },
        {
          "internalType": "bool",
          "name": "",
          "type": "bool"
        },
        {
          "internalType": "bool",
          "name": "",
          "type": "bool"
        },
        {
          "internalType": "bool",
          "name": "",
          "type": "bool"
        }
      ],
      "payable": false,
      "stateMutability": "view",
      "type": "function"
    },
    {
      "constant": true,
      "inputs": [],
      "name": "GetAllDeliver",
      "outputs": [
        {
          "internalType": "address[]",
          "name": "",
          "type": "address[]"
        }
      ],
      "payable": false,
      "stateMutability": "view",
      "type": "function"
    },
    {
      "constant": false,
      "inputs": [
        {
          "internalType": "address",
          "name": "_address",
          "type": "address"
        }
      ],
      "name": "MatchWithDeliver",
      "outputs": [],
      "payable": false,
      "stateMutability": "nonpayable",
      "type": "function"
    },
    {
      "constant": false,
      "inputs": [
        {
          "internalType": "int256[6]",
          "name": "_product_num",
          "type": "int256[6]"
        },
        {
          "internalType": "string",
          "name": "_real_address",
          "type": "string"
        },
        {
          "internalType": "string",
          "name": "_phone",
          "type": "string"
        }
      ],
      "name": "UploadOrder",
      "outputs": [],
      "payable": false,
      "stateMutability": "nonpayable",
      "type": "function"
    }
  ],
  "bytecode": "0x608060405234801561001057600080fd5b50612667806100206000396000f3fe608060405234801561001057600080fd5b506004361061009e5760003560e01c80634172140811610066578063417214081461077b57806358f055541461078557806368bec30a1461078f5780638f097b5d14610923578063de01215f146109675761009e565b80632d720c52146100a3578063336594661461010257806335ef62a31461032f57806336a2742a146105ce5780633b5565a014610726575b600080fd5b6100ab610c30565b6040518080602001828103825283818151815260200191508051906020019060200280838360005b838110156100ee5780820151818401526020810190506100d3565b505050509050019250505060405180910390f35b6101446004803603602081101561011857600080fd5b81019080803573ffffffffffffffffffffffffffffffffffffffff169060200190929190505050610cbe565b60405180806020018060200180602001806020018915151515815260200188151515158152602001871515151581526020018615151515815260200185810385528d818151815260200191508051906020019080838360005b838110156101b857808201518184015260208101905061019d565b50505050905090810190601f1680156101e55780820380516001836020036101000a031916815260200191505b5085810384528c818151815260200191508051906020019080838360005b8381101561021e578082015181840152602081019050610203565b50505050905090810190601f16801561024b5780820380516001836020036101000a031916815260200191505b5085810383528b818151815260200191508051906020019080838360005b83811015610284578082015181840152602081019050610269565b50505050905090810190601f1680156102b15780820380516001836020036101000a031916815260200191505b5085810382528a818151815260200191508051906020019080838360005b838110156102ea5780820151818401526020810190506102cf565b50505050905090810190601f1680156103175780820380516001836020036101000a031916815260200191505b509c5050505050505050505050505060405180910390f35b6103376111fe565b6040518080602001806020018060200180602001806020018060200187810387528d818151815260200191508051906020019080838360005b8381101561038b578082015181840152602081019050610370565b50505050905090810190601f1680156103b85780820380516001836020036101000a031916815260200191505b5087810386528c818151815260200191508051906020019080838360005b838110156103f15780820151818401526020810190506103d6565b50505050905090810190601f16801561041e5780820380516001836020036101000a031916815260200191505b5087810385528b818151815260200191508051906020019080838360005b8381101561045757808201518184015260208101905061043c565b50505050905090810190601f1680156104845780820380516001836020036101000a031916815260200191505b5087810384528a818151815260200191508051906020019080838360005b838110156104bd5780820151818401526020810190506104a2565b50505050905090810190601f1680156104ea5780820380516001836020036101000a031916815260200191505b50878103835289818151815260200191508051906020019080838360005b83811015610523578082015181840152602081019050610508565b50505050905090810190601f1680156105505780820380516001836020036101000a031916815260200191505b50878103825288818151815260200191508051906020019080838360005b8381101561058957808201518184015260208101905061056e565b50505050905090810190601f1680156105b65780820380516001836020036101000a031916815260200191505b509c5050505050505050505050505060405180910390f35b610610600480360360208110156105e457600080fd5b81019080803573ffffffffffffffffffffffffffffffffffffffff16906020019092919050505061135f565b6040518084600660200280838360005b8381101561063b578082015181840152602081019050610620565b505050509050018060200180602001838103835285818151815260200191508051906020019080838360005b83811015610682578082015181840152602081019050610667565b50505050905090810190601f1680156106af5780820380516001836020036101000a031916815260200191505b50838103825284818151815260200191508051906020019080838360005b838110156106e85780820151818401526020810190506106cd565b50505050905090810190601f1680156107155780820380516001836020036101000a031916815260200191505b509550505050505060405180910390f35b61072e61156d565b60405180831515151581526020018273ffffffffffffffffffffffffffffffffffffffff1673ffffffffffffffffffffffffffffffffffffffff1681526020019250505060405180910390f35b610783611a07565b005b61078d611b0e565b005b61092160048036036101008110156107a657600080fd5b810190808060c001906006806020026040519081016040528092919082600660200280828437600081840152601f19601f82011690508083019250505050505091929192908035906020019064010000000081111561080457600080fd5b82018360208201111561081657600080fd5b8035906020019184600183028401116401000000008311171561083857600080fd5b91908080601f016020809104026020016040519081016040528093929190818152602001838380828437600081840152601f19601f8201169050808301925050505050505091929192908035906020019064010000000081111561089b57600080fd5b8201836020820111156108ad57600080fd5b803590602001918460018302840111640100000000831117156108cf57600080fd5b91908080601f016020809104026020016040519081016040528093929190818152602001838380828437600081840152601f19601f820116905080830192505050505050509192919290505050611cdf565b005b6109656004803603602081101561093957600080fd5b81019080803573ffffffffffffffffffffffffffffffffffffffff169060200190929190505050611d6e565b005b610c16600480360361010081101561097e57600080fd5b810190808035906020019064010000000081111561099b57600080fd5b8201836020820111156109ad57600080fd5b803590602001918460018302840111640100000000831117156109cf57600080fd5b91908080601f016020809104026020016040519081016040528093929190818152602001838380828437600081840152601f19601f82011690508083019250505050505050919291929080359060200190640100000000811115610a3257600080fd5b820183602082011115610a4457600080fd5b80359060200191846001830284011164010000000083111715610a6657600080fd5b91908080601f016020809104026020016040519081016040528093929190818152602001838380828437600081840152601f19601f82011690508083019250505050505050919291929080359060200190640100000000811115610ac957600080fd5b820183602082011115610adb57600080fd5b80359060200191846001830284011164010000000083111715610afd57600080fd5b91908080601f016020809104026020016040519081016040528093929190818152602001838380828437600081840152601f19601f82011690508083019250505050505050919291929080359060200190640100000000811115610b6057600080fd5b820183602082011115610b7257600080fd5b80359060200191846001830284011164010000000083111715610b9457600080fd5b91908080601f016020809104026020016040519081016040528093929190818152602001838380828437600081840152601f19601f820116905080830192505050505050509192919290803515159060200190929190803515159060200190929190803515159060200190929190803515159060200190929190505050611ef6565b604051808215151515815260200191505060405180910390f35b60606001805480602002602001604051908101604052809291908181526020018280548015610cb457602002820191906000526020600020905b8160009054906101000a900473ffffffffffffffffffffffffffffffffffffffff1673ffffffffffffffffffffffffffffffffffffffff1681526020019060010190808311610c6a575b5050505050905090565b606080606080600080600080610cd2612388565b6000808b73ffffffffffffffffffffffffffffffffffffffff1673ffffffffffffffffffffffffffffffffffffffff168152602001908152602001600020604051806101a0016040529081600082018054600181600116156101000203166002900480601f016020809104026020016040519081016040528092919081815260200182805460018160011615610100020316600290048015610db55780601f10610d8a57610100808354040283529160200191610db5565b820191906000526020600020905b815481529060010190602001808311610d9857829003601f168201915b50505050508152602001600182018054600181600116156101000203166002900480601f016020809104026020016040519081016040528092919081815260200182805460018160011615610100020316600290048015610e575780601f10610e2c57610100808354040283529160200191610e57565b820191906000526020600020905b815481529060010190602001808311610e3a57829003601f168201915b50505050508152602001600282018054600181600116156101000203166002900480601f016020809104026020016040519081016040528092919081815260200182805460018160011615610100020316600290048015610ef95780601f10610ece57610100808354040283529160200191610ef9565b820191906000526020600020905b815481529060010190602001808311610edc57829003601f168201915b50505050508152602001600382018054600181600116156101000203166002900480601f016020809104026020016040519081016040528092919081815260200182805460018160011615610100020316600290048015610f9b5780601f10610f7057610100808354040283529160200191610f9b565b820191906000526020600020905b815481529060010190602001808311610f7e57829003601f168201915b505050505081526020016004820160009054906101000a900460ff161515151581526020016004820160019054906101000a900460ff161515151581526020016004820160029054906101000a900460ff161515151581526020016004820160039054906101000a900460ff161515151581526020016004820160049054906101000a900460ff16151515158152602001600582015481526020016006820160009054906101000a900473ffffffffffffffffffffffffffffffffffffffff1673ffffffffffffffffffffffffffffffffffffffff1673ffffffffffffffffffffffffffffffffffffffff1681526020016006820160149054906101000a900460ff161515151581526020016007820160405180602001604052908160028201805480602002602001604051908101604052809291908181526020016000905b8282101561113e578382906000526020600020906002020160028060200260405190810160405280929190826002801561112a576020028201915b815481526020019060010190808311611116575b5050505050815260200190600101906110db565b5050505081525050815250509050600115158161010001511515146111ae576040517f08c379a00000000000000000000000000000000000000000000000000000000081526004018080602001828103825260358152602001806125c86035913960400191505060405180910390fd5b806000015181602001518260400151836060015184608001518560a001518660c001518760e001518797508696508595508494509850985098509850985098509850985050919395975091939597565b6060806060806060806040518060400160405280600e81526020017f43686f636f6c6174652043616b650000000000000000000000000000000000008152506040518060400160405280600781526020017f43757063616b65000000000000000000000000000000000000000000000000008152506040518060400160405280600981526020017f49636520437265616d00000000000000000000000000000000000000000000008152506040518060400160405280600581526020017f446f6e75740000000000000000000000000000000000000000000000000000008152506040518060400160405280600781526020017f4d616361726f6e000000000000000000000000000000000000000000000000008152506040518060400160405280600981526020017f4d696c6b7368616b650000000000000000000000000000000000000000000000815250955095509550955095509550909192939495565b611367612418565b60608061137261243a565b600260008673ffffffffffffffffffffffffffffffffffffffff1673ffffffffffffffffffffffffffffffffffffffff168152602001908152602001600020604051806060016040529081600082016006806020026040519081016040528092919082600680156113f8576020028201915b8154815260200190600101908083116113e4575b50505050508152602001600682018054600181600116156101000203166002900480601f01602080910402602001604051908101604052809291908181526020018280546001816001161561010002031660029004801561149a5780601f1061146f5761010080835404028352916020019161149a565b820191906000526020600020905b81548152906001019060200180831161147d57829003601f168201915b50505050508152602001600782018054600181600116156101000203166002900480601f01602080910402602001604051908101604052809291908181526020018280546001816001161561010002031660029004801561153c5780601f106115115761010080835404028352916020019161153c565b820191906000526020600020905b81548152906001019060200180831161151f57829003601f168201915b5050505050815250509050806000015181602001518260400151829250819150809050935093509350509193909250565b600080611578612388565b6000803373ffffffffffffffffffffffffffffffffffffffff1673ffffffffffffffffffffffffffffffffffffffff168152602001908152602001600020604051806101a0016040529081600082018054600181600116156101000203166002900480601f01602080910402602001604051908101604052809291908181526020018280546001816001161561010002031660029004801561165b5780601f106116305761010080835404028352916020019161165b565b820191906000526020600020905b81548152906001019060200180831161163e57829003601f168201915b50505050508152602001600182018054600181600116156101000203166002900480601f0160208091040260200160405190810160405280929190818152602001828054600181600116156101000203166002900480156116fd5780601f106116d2576101008083540402835291602001916116fd565b820191906000526020600020905b8154815290600101906020018083116116e057829003601f168201915b50505050508152602001600282018054600181600116156101000203166002900480601f01602080910402602001604051908101604052809291908181526020018280546001816001161561010002031660029004801561179f5780601f106117745761010080835404028352916020019161179f565b820191906000526020600020905b81548152906001019060200180831161178257829003601f168201915b50505050508152602001600382018054600181600116156101000203166002900480601f0160208091040260200160405190810160405280929190818152602001828054600181600116156101000203166002900480156118415780601f1061181657610100808354040283529160200191611841565b820191906000526020600020905b81548152906001019060200180831161182457829003601f168201915b505050505081526020016004820160009054906101000a900460ff161515151581526020016004820160019054906101000a900460ff161515151581526020016004820160029054906101000a900460ff161515151581526020016004820160039054906101000a900460ff161515151581526020016004820160049054906101000a900460ff16151515158152602001600582015481526020016006820160009054906101000a900473ffffffffffffffffffffffffffffffffffffffff1673ffffffffffffffffffffffffffffffffffffffff1673ffffffffffffffffffffffffffffffffffffffff1681526020016006820160149054906101000a900460ff161515151581526020016007820160405180602001604052908160028201805480602002602001604051908101604052809291908181526020016000905b828210156119e457838290600052602060002090600202016002806020026040519081016040528092919082600280156119d0576020028201915b8154815260200190600101908083116119bc575b505050505081526020019060010190611981565b505050508152505081525050905080610160015181610140015192509250509091565b600115156000803373ffffffffffffffffffffffffffffffffffffffff1673ffffffffffffffffffffffffffffffffffffffff16815260200190815260200160002060040160049054906101000a900460ff16151514611ab2576040517f08c379a00000000000000000000000000000000000000000000000000000000081526004018080602001828103825260278152602001806125a16027913960400191505060405180910390fd5b60008060003373ffffffffffffffffffffffffffffffffffffffff1673ffffffffffffffffffffffffffffffffffffffff16815260200190815260200160002060060160146101000a81548160ff021916908315150217905550565b60003390506000808273ffffffffffffffffffffffffffffffffffffffff1673ffffffffffffffffffffffffffffffffffffffff16815260200190815260200160002060040160049054906101000a900460ff1615611cdc5760008060008373ffffffffffffffffffffffffffffffffffffffff1673ffffffffffffffffffffffffffffffffffffffff16815260200190815260200160002060040160046101000a81548160ff02191690831515021790555060008060008373ffffffffffffffffffffffffffffffffffffffff1673ffffffffffffffffffffffffffffffffffffffff16815260200190815260200160002060050154905060018080805490500381548110611c1a57fe5b9060005260206000200160009054906101000a900473ffffffffffffffffffffffffffffffffffffffff1660018281548110611c5257fe5b9060005260206000200160006101000a81548173ffffffffffffffffffffffffffffffffffffffff021916908373ffffffffffffffffffffffffffffffffffffffff1602179055506001805480611ca557fe5b6001900381819060005260206000200160006101000a81549073ffffffffffffffffffffffffffffffffffffffff02191690559055505b50565b6000600260003373ffffffffffffffffffffffffffffffffffffffff1673ffffffffffffffffffffffffffffffffffffffff16815260200190815260200160002090508381600001906006611d35929190612461565b5082816006019080519060200190611d4e9291906124a1565b5081816007019080519060200190611d679291906124a1565b5050505050565b600115156000808373ffffffffffffffffffffffffffffffffffffffff1673ffffffffffffffffffffffffffffffffffffffff16815260200190815260200160002060040160049054906101000a900460ff16151514611e19576040517f08c379a00000000000000000000000000000000000000000000000000000000081526004018080602001828103825260368152602001806125fd6036913960400191505060405180910390fd5b336000808373ffffffffffffffffffffffffffffffffffffffff1673ffffffffffffffffffffffffffffffffffffffff16815260200190815260200160002060060160006101000a81548173ffffffffffffffffffffffffffffffffffffffff021916908373ffffffffffffffffffffffffffffffffffffffff16021790555060016000808373ffffffffffffffffffffffffffffffffffffffff1673ffffffffffffffffffffffffffffffffffffffff16815260200190815260200160002060060160146101000a81548160ff02191690831515021790555050565b60008060003373ffffffffffffffffffffffffffffffffffffffff1673ffffffffffffffffffffffffffffffffffffffff16815260200190815260200160002060040160049054906101000a900460ff16611fff5760013390806001815401808255809150509060018203906000526020600020016000909192909190916101000a81548173ffffffffffffffffffffffffffffffffffffffff021916908373ffffffffffffffffffffffffffffffffffffffff1602179055505060018080549050036000803373ffffffffffffffffffffffffffffffffffffffff1673ffffffffffffffffffffffffffffffffffffffff168152602001908152602001600020600501819055505b886000803373ffffffffffffffffffffffffffffffffffffffff1673ffffffffffffffffffffffffffffffffffffffff16815260200190815260200160002060000190805190602001906120549291906124a1565b50876000803373ffffffffffffffffffffffffffffffffffffffff1673ffffffffffffffffffffffffffffffffffffffff16815260200190815260200160002060010190805190602001906120aa9291906124a1565b50866000803373ffffffffffffffffffffffffffffffffffffffff1673ffffffffffffffffffffffffffffffffffffffff16815260200190815260200160002060020190805190602001906121009291906124a1565b50856000803373ffffffffffffffffffffffffffffffffffffffff1673ffffffffffffffffffffffffffffffffffffffff16815260200190815260200160002060030190805190602001906121569291906124a1565b50846000803373ffffffffffffffffffffffffffffffffffffffff1673ffffffffffffffffffffffffffffffffffffffff16815260200190815260200160002060040160006101000a81548160ff021916908315150217905550836000803373ffffffffffffffffffffffffffffffffffffffff1673ffffffffffffffffffffffffffffffffffffffff16815260200190815260200160002060040160016101000a81548160ff021916908315150217905550826000803373ffffffffffffffffffffffffffffffffffffffff1673ffffffffffffffffffffffffffffffffffffffff16815260200190815260200160002060040160026101000a81548160ff021916908315150217905550816000803373ffffffffffffffffffffffffffffffffffffffff1673ffffffffffffffffffffffffffffffffffffffff16815260200190815260200160002060040160036101000a81548160ff02191690831515021790555060016000803373ffffffffffffffffffffffffffffffffffffffff1673ffffffffffffffffffffffffffffffffffffffff16815260200190815260200160002060040160046101000a81548160ff0219169083151502179055507f23866fae1b3342ccc231b57a06d29950d265637d7622c260b50eb1dc84cdbe0033604051808273ffffffffffffffffffffffffffffffffffffffff1673ffffffffffffffffffffffffffffffffffffffff16815260200191505060405180910390a16001905098975050505050505050565b604051806101a001604052806060815260200160608152602001606081526020016060815260200160001515815260200160001515815260200160001515815260200160001515815260200160001515815260200160008152602001600073ffffffffffffffffffffffffffffffffffffffff168152602001600015158152602001612412612521565b81525090565b6040518060c00160405280600690602082028038833980820191505090505090565b604051806060016040528061244d612534565b815260200160608152602001606081525090565b8260068101928215612490579160200282015b8281111561248f578251825591602001919060010190612474565b5b50905061249d9190612556565b5090565b828054600181600116156101000203166002900490600052602060002090601f016020900481019282601f106124e257805160ff1916838001178555612510565b82800160010185558215612510579182015b8281111561250f5782518255916020019190600101906124f4565b5b50905061251d919061257b565b5090565b6040518060200160405280606081525090565b6040518060c00160405280600690602082028038833980820191505090505090565b61257891905b8082111561257457600081600090555060010161255c565b5090565b90565b61259d91905b80821115612599576000816000905550600101612581565b5090565b9056fe46696e6973684d617463683a546869732044656c6976657220646f6573206e6f742065786973744765744865616c74685374617475733a20746869732064656c697665727920706572736f6e20646f6573206e6f74206578697374214d617463685769746844656c697665723a20746869732064656c697665727920706572736f6e20646f6573206e6f7420657869737421a265627a7a723158208a2a1d032185921446ecc897acfab8973fc4f92642a35aa4015e7465148c12de64736f6c63430005100032",
  "source": "pragma solidity ^0.5.0;\n\n/*\nContract Description:\n\n*********** Delivery Person ***********\n1. UploadHealthStatus(string memory _FirstName,\n        string memory _LastName,\n        string memory _Email,\n        string memory _Phone,\n        bool _TravelOrNot,\n        bool _otherSymptom,\n        bool _Contact,\n        bool _Symptom): Upload the health status of the sender\n\n2. DeleteDeliver(): Delete himself from the Queue when he can not work\n\n3. GetMatchedCustomer(): Return the address of customer\n    @Return: (bool matched, address customer)\n        1. If matched == false: then the deliver has not been matched yet\n        2. if matched == true: then customer denotes the address(Ethereum)  \n\n4. GetOrderByAddress(address _customer)public view returns\n    (int256[], string memory, string memory, string memory, string memory)\n    @ Returns: (Product number[], real_address, phone)\n\n5. GetProduct():\n    @ Product name in tuple: (Product1, Product2, ...., Product6)\n\n6. FinishMatch(): Finish the match with the customer and (send photos and location)\n*********** Client Side ***********\n1. GetHealthStatus(address DP): get the health status of DP\n    @Return: (_FirstName, _LastName, _Email, _Phone, _TravelOrNot, _otherSymptom, _Contact, _Symptom)\n\n2. GetAllDeliver(): get the addresses of all available delivery people\n    @Return: [] Array containing the addresses of all delivery people\n\n3. MatchWithDeliver(address _deliver): Modify the \"customer\" property of the Deliver\n\n4. UploadOrder(\n        int256[] _product_num,\n        string memory _real_address,\n        string memory _phone\n    ): Upload the order and some information of customer\n*/\n\ncontract COVID {\n    /**********\n     * Struct Definition (mapping)\n     ************\n     */\n    // Delivering history\n    struct History {\n        mapping(int256 => bool) has_visited_x; // whether this coordinate(x,y) has been visited\n        mapping(int256 => bool) has_visited_y; // whether this coordinate(x,y) has been visited\n        int256[2][] log; // all the history will be stored in the log\n    }\n\n    // Delivery Person\n    struct Deliver {\n        string FirstName;\n        string LastName;\n        string Email;\n        string Phone;\n        bool TravelOrNot;\n        bool otherSymptom;\n        bool Contact;\n        bool Symptom;\n        bool exist; // whether this person exist\n        uint256 id; // the id to help us find this guy in the array\n        address customer; // the address of the matched customer\n        bool matched; // whether this deliver is matched\n        History history; // all the locations where this deliver has been before\n    }\n    // Customer\n    struct Customer {\n        int256[6] Product_num; // how many of them are ordered for each product\n        string real_address;\n        string phone;\n    }\n    /**********\n     * Private data structures (mapping)\n     ************\n     */\n    // Define Set to record all the delivery person\n    // Health State related\n    mapping(address => Deliver) private _DeliverStatus;\n    address[] private Delivers;\n\n    // Record the Order of a customer\n    mapping(address => Customer) private _CustomerOrder;\n\n    /*************\n     * Delivery Side\n     ***************\n     */\n    // Upload the health status\n    event UpdateHealth(address DP);\n\n    function UploadHealthStatus(\n        string memory _FirstName,\n        string memory _LastName,\n        string memory _Email,\n        string memory _Phone,\n        bool _TravelOrNot,\n        bool _otherSymptom,\n        bool _Contact,\n        bool _Symptom\n    ) public returns (bool) {\n        if (!_DeliverStatus[msg.sender].exist) {\n            //Add this deliver person into the array\n            Delivers.push(msg.sender);\n            _DeliverStatus[msg.sender].id = Delivers.length - 1;\n        }\n        _DeliverStatus[msg.sender].FirstName = _FirstName;\n        _DeliverStatus[msg.sender].LastName = _LastName;\n        _DeliverStatus[msg.sender].Email = _Email;\n        _DeliverStatus[msg.sender].Phone = _Phone;\n        _DeliverStatus[msg.sender].TravelOrNot = _TravelOrNot;\n        _DeliverStatus[msg.sender].otherSymptom = _otherSymptom;\n        _DeliverStatus[msg.sender].Contact = _Contact;\n        _DeliverStatus[msg.sender].Symptom = _Symptom;\n        _DeliverStatus[msg.sender].exist = true;\n        // Success\n        emit UpdateHealth(msg.sender);\n        return true;\n    }\n\n    // Delete Delivery Person\n    function DeleteDeliver() public {\n        address person = msg.sender;\n        if (_DeliverStatus[person].exist) {\n            _DeliverStatus[person].exist = false;\n\n            // Since solidity does not have set, we need to swap the person with the last person\n            uint256 index = _DeliverStatus[person].id;\n            Delivers[index] = Delivers[Delivers.length - 1];\n            Delivers.pop();\n        }\n    }\n\n    // Get the address of matched customer\n    function GetMatchedCutomer() public view returns (bool, address) {\n        Deliver memory DP = _DeliverStatus[msg.sender];\n        return (DP.matched, DP.customer);\n    }\n\n    function GetOrderByAddress(address _customer)\n        public\n        view\n        returns (\n            int256[6] memory,\n            string memory,\n            string memory\n        )\n    {\n        Customer memory customer = _CustomerOrder[_customer];\n        return (customer.Product_num, customer.real_address, customer.phone);\n    }\n\n    function FinishMatch() public {\n        require(\n            _DeliverStatus[msg.sender].exist == true,\n            \"FinishMatch:This Deliver does not exist\"\n        );\n        _DeliverStatus[msg.sender].matched = false;\n    }\n\n    // Get all the product name\n    function GetProduct()\n        public\n        view\n        returns (\n            string memory,\n            string memory,\n            string memory,\n            string memory,\n            string memory,\n            string memory\n        )\n    {\n        return (\n            \"Chocolate Cake\",\n            \"Cupcake\",\n            \"Ice Cream\",\n            \"Donut\",\n            \"Macaron\",\n            \"Milkshake\"\n        );\n    }\n\n    /**************\n     * Client Side *\n     ***************\n     */\n\n    // Get the health status of a specific delivery person (by address)\n    function GetHealthStatus(address Deliv)\n        public\n        view\n        returns (\n            string memory,\n            string memory,\n            string memory,\n            string memory,\n            bool,\n            bool,\n            bool,\n            bool\n        )\n    {\n        Deliver memory deliver = _DeliverStatus[Deliv];\n\n        // test whether this person exist\n        require(\n            deliver.exist == true,\n            \"GetHealthStatus: this delivery person does not exist!\"\n        );\n\n        // Return the health status by an array\n        return (\n            deliver.FirstName,\n            deliver.LastName,\n            deliver.Email,\n            deliver.Phone,\n            deliver.TravelOrNot,\n            deliver.otherSymptom,\n            deliver.Contact,\n            deliver.Symptom\n        );\n    }\n\n    // Get the addresses of all delivery people\n    function GetAllDeliver() public view returns (address[] memory) {\n        // Mark the returned type as memory so the returned thing is not the address of Delivers but the array\n        return Delivers;\n    }\n\n    // Match with the Deliver\n    function MatchWithDeliver(address _address) public {\n        // test whether this person exist\n        require(\n            _DeliverStatus[_address].exist == true,\n            \"MatchWithDeliver: this delivery person does not exist!\"\n        );\n        // _address: Deliver msg.sender:customer\n        _DeliverStatus[_address].customer = msg.sender;\n        _DeliverStatus[_address].matched = true;\n    }\n\n    // Upload the Order of Cutomer\n    function UploadOrder(\n        int256[6] memory _product_num,\n        string memory _real_address,\n        string memory _phone\n    ) public {\n        Customer storage customer = _CustomerOrder[msg.sender];\n\n        customer.Product_num = _product_num;\n        customer.real_address = _real_address;\n        customer.phone = _phone;\n    }\n}\n",
  "sourcePath": "D:///Final Project/No-Covid/contracts/COVID.sol",
  "compiler": {
    "name": "solc",
    "version": "0.5.16+commit.9c3226ce.Emscripten.clang"
  },
  "schemaVersion": "3.4.1",
  "updatedAt": "2021-06-05T11:16:16.309Z",
  "devdoc": {
    "methods": {}
  },
  "userdoc": {
    "methods": {
      "GetHealthStatus(address)": {
        "notice": "************ Client Side ****************"
      }
    }
  }
}